:1000000000EE32F0C40EF66E080EF76E0900F5CF62
:10001000EEFF00EE00F010EE32F031EC00F004EEF6
:1000200000F011EE08F031EC00F005EE20F010EEDB
:1000300008F031EC00F005EE30F010EE03F031EC9A
:1000400000F005EE70F010EE03F031EC00F00FEE72
:1000500070F010EE0FF031EC00F0000EF86EC2EF11
:1000600011F0EE6AE550E150FCE1E250FAE11200D5
:100070000900F5CFEEFFE550E150FAE1E250F8E17A
:0200800012006C
:100800000034034D006900630072006F00630068EC
:100810000069007000200054006500630068006EED
:10082000006F006C006F0067007900200049006EC7
:100830000063002E002A03570046004600200047B0
:100840000065006E006500720069006300200048CA
:1008500000490044002000640065006D006F00093D
:10086000022900010100C032090400000203000057
:1008700000092111010001221D000705810340002C
:1008800001070501034000010600FF0901A101194C
:10089000012940150026FF007508954081001901C7
:1008A00029409100C01201000200000008D8044253
:1008B00000020001020001BD080108350804030917
:1008C000045F0800010065EF04F01D666AEF04F0A4
:1008D0006CEF04F086EF04F0000E6D6E000E696E92
:1008E000160E6F6E9F0E6B6E7B0E696E79EF04F0C5
:1008F0006D866DA67EEF04F080EF04F078EF04F0D3
:100900000101016F010E1D6E010101511D04D8A4EA
:100910008CEF04F08EEF04F0A1EF04F06DBA93EFCA
:1009200004F095EF04F0A1EF04F0000E686E000EE5
:10093000696E698069880101016F020E1D6E0101F7
:10094000015168A4A6EF04F0A8EF04F0B2EF04F0A0
:1009500069A4ADEF04F0AFEF04F0B2EF04F06894D7
:100960005FEC11F06DA2B7EF04F0B9EF04F0BCEF4B
:1009700004F0A19ABCEF05F068A0C1EF04F0C3EF4A
:1009800004F0E8EF04F069A0C8EF04F0CAEF04F047
:10099000E8EF04F0BEEC0BF00101016F040E1D6ED8
:1009A000010101510501000E04010401026F05015E
:1009B000050E0401036F080E04010401016F000E0F
:1009C00004010401006F8C0E0401040100136890FF
:1009D00068A8EDEF04F0EFEF04F0F9EF04F069A878
:1009E000F4EF04F0F6EF04F0F9EF04F0A7EC11F0E7
:1009F000689868ACFEEF04F000EF05F01FEF05F01B
:100A000069AC05EF05F007EF05F01FEF05F0010EEB
:100A1000010101010C6F000E01010D6F000E0101BB
:100A200001010A6F000E01010B6F730E010101013C
:100A3000086F000E0101096F85EC0FF0689C68AA31
:100A400024EF05F026EF05F02FEF05F069AA2BEF54
:100A500005F02DEF05F02FEF05F037EC11F068A24F
:100A600034EF05F036EF05F056EF05F069A23BEFE5
:100A700005F03DEF05F056EF05F0010E0101010113
:100A80000C6F000E01010D6F000E010101010A6FD4
:100A9000000E01010B6FFF0E01010101086F7F0EB7
:100AA0000101096F85EC0FF0000E6A6E040E1D60E7
:100AB0005CEF05F05EEF05F061EF05F0A19ABCEF89
:100AC00005F069A666EF05F068EF05F0BBEF05F0ED
:100AD0000101016F000E01010101006F01010151CF
:100AE000030E01010101006578EF05F07AEF05F0D2
:100AF0007CEF05F0BBEF05F068A681EF05F083EF12
:100B000005F0ACEF05F06CCF1CF068961C50780B2C
:100B1000D8A48DEF05F08FEF05F093EF05F0F5EC1D
:100B200009F0AAEF05F0000E010101010C6F000EA3
:100B300001010D6F1C0E010101010A6F000E010180
:100B40000B6F720E01010101086F000E0101096FA8
:100B500085EC0FF0AEEF05F0BBEF05F001010101F0
:100B6000002B030E010101010065B9EF05F0BBEF99
:100B700005F07CEF05F0A19A12006D9803BEC3EF5B
:100B800005F0C5EF05F01EEF06F009AECAEF05F05F
:100B9000CCEF05F0FCEF05F00101066F020E246EAC
:100BA00001010651010E0F24E96E000E1020EA6EBD
:100BB000000EEF6E0FC0E9FF10C0EAFFC80EEF6E27
:100BC000010E1324E96E000E1420EA6E080EEF6E7B
:100BD000020E1324E96E000E1420EA6E0501200EA9
:100BE000EE6E0501050EED6E13C0E9FF14C0EAFFBD
:100BF000C80EEF6E1CEF06F0010E1324E96E000E16
:100C00001420EA6E080EEF6E020E1324E96E000E39
:100C10001420EA6E0501000EEE6E0501050EED6E64
:100C200013C0E9FF14C0EAFF8C0EEF6E0FC0E9FF9E
:100C300010C0EAFF840EEF6ECFEF06F009BE23EF7F
:100C400006F025EF06F0CFEF06F00501050100AF35
:100C50002CEF06F02EEF06F0A1EF06F000EE04F008
:100C6000050115EE06F0E652EE52ED50E55C02E1AC
:100C7000EF50E75CD8B03FEF06F041EF06F045EFEC
:100C800006F006C504F007C505F033EC09F00101D4
:100C9000066F010E246E01010651010E1324E96E48
:100CA000000E1420EA6E080EEF6E020E1324E96E99
:100CB000000E1420EA6E0501000EEE6E0501050E11
:100CC000ED6E13C0E9FF14C0EAFF800EEF6E010164
:100CD000066F000E276E01010651010E1524E96E04
:100CE000000E1620EA6E080EEF6E020E1524E96E55
:100CF000000E1620EA6E0501000EEE6E0501050ECF
:100D0000ED6E15C0E9FF16C0EAFF840EEF6E01011B
:100D1000066F010E276E01010651020E0F24E96EC7
:100D2000000E1020EA6E0501200EEE6E0501050E84
:100D3000ED6E0FC0E9FF10C0EAFFC80EEF6ECFEFF7
:100D400006F00101066F020E246E01010651010E2C
:100D50000F24E96E000E1020EA6E000EEF6E0FC039
:100D6000E9FF10C0EAFFC80EEF6E010E1324E96E12
:100D7000000E1420EA6E080EEF6E020E1324E96EC8
:100D8000000E1420EA6E0501200EEE6E0501050E20
:100D9000ED6E13C0E9FF14C0EAFFC80EEF6E12003B
:100DA000050105010205D8A4D8EF06F0DAEF06F038
:100DB000FFEF06F0050100511F0B0009D8A4E3EF77
:100DC00006F0E5EF06F0FFEF06F0038E05010501E2
:100DD0000151030AD8A4EFEF06F0F1EF06F0F9EFA6
:100DE00006F001010B6F010E286E01010B51FFEFA0
:100DF00006F001010B6F000E286E01010B51050179
:100E00000501026706EF07F008EF07F0A8EF07F00B
:100E1000050100511F0B020AD8A411EF07F013EFD0
:100E200007F0A8EF07F0050104510F0B0009D8B433
:100E30001CEF07F01EEF07F0A8EF07F0038E050187
:100E4000050104BF26EF07F028EF07F03AEF07F09F
:100E5000050104510F0B020D170EF324E96EEA6A27
:100E6000000EEA220101EECF09F10101EDCF0AF1F6
:100E70004AEF07F0050104510F0B020D0F0EF3248A
:100E8000E96EEA6A000EEA220101EECF09F10101E2
:100E9000EDCF0AF1050105010151030AD8A453EF72
:100EA00007F055EF07F05DEF07F009C1E9FF0AC150
:100EB000EAFF840EEF6EA8EF07F0050104510F0B57
:100EC00001010B6F700E01010C6F0F0E0D6F010110
:100ED0000B5101010C27E86A01010BBFE868010111
:100EE0000D230CC107F10DC108F107C1E9FF08C1CD
:100EF000EAFFFE0EEE16FF0EED160501050104AF2A
:100F000084EF07F086EF07F098EF07F009C1E9FFDB
:100F10000AC1EAFF000EEF6E040E01010101091B78
:100F200009C1E9FF0AC1EAFF400EEF6EA8EF07F022
:100F300009C1E9FF0AC1EAFF880EEF6E040E010144
:100F40000101091B09C1E9FF0AC1EAFFC80EEF6EE2
:100F50001200050100511F0B0101106F0101100566
:100F6000D8B4B5EF07F0B7EF07F0B9EF07F06FEFC0
:100F700008F0050105010451D8B4C1EF07F0C3EF33
:100F800007F0C5EF07F06FEF08F00501050101510B
:100F9000060AD8A4CEEF07F0D0EF07F015EF08F05F
:100FA0000AEF08F01B04D8A4D8EF07F0DAEF07F037
:100FB000E8EF07F0710E006E080E016E090E046E68
:100FC000000E056E0101106FC00E036E010110517D
:100FD00015EF08F01B04D8A4F0EF07F0F2EF07F0CC
:100FE000E8EF07F0880E006E080E016E1D0E046E0D
:100FF000000E056E0101106FC00E036E010110514D
:1010000015EF08F00101106F800E036E0101105101
:1010100015EF08F0050105010351210AC3E0030A99
:10102000D9E0010AEFE015EF08F005010039E832D8
:10103000030B0101106F01011005D8B422EF08F075
:1010400024EF08F026EF08F06FEF08F05EEF08F0ED
:101050006FEF08F0260E006E000E016E010E046E9A
:10106000000E056E0101106FC10E036E01011051DB
:101070006FEF08F00101106F800E036E0101105137
:1010800003C526F06FEF08F0250E006E000E016E0E
:10109000010E046E000E056E0101106F810E036ECD
:1010A000010110516FEF08F00101106F800E036E07
:1010B0000101105102C525F06FEF08F0050105018F
:1010C0000151010AC5E0030AC5E0010ADDE00A0A90
:1010D000BFE0030ACFE0010AE7E06FEF08F012007B
:1010E000010E1524E96E000E1620EA6EEF50010184
:1010F0000101066F0101010106510A5C000E0B5847
:10110000D8B085EF08F087EF08F08BEF08F00AC041
:1011100006F194EF08F00101010106510A5C0A6E24
:101120000B50D8A00B040B6E0101086F000E0101DB
:101130000101076F01010851B3EF08F00501200E0E
:10114000010101010725E96EEA6A0501050EEA229F
:1011500006C0E1FF07C0E2FFEFCFE7FF064A072A1C
:1011600001010101072B01010101065101010101EA
:10117000075DD8A0BEEF08F0C0EF08F09EEF08F0C2
:101180000B500A10D8B4C7EF08F0C9EF08F0FCEF15
:1011900008F0010E1324E96E000E1420EA6E080E0A
:1011A000EF6E020E1324E96E000E1420EA6E0501A4
:1011B000200EEE6E0501050EED6E15C0E9FF16C09E
:1011C000EAFFEF500101086F010108BDEAEF08F0E6
:1011D000ECEF08F0F4EF08F013C0E9FF14C0EAFFE9
:1011E000C80EEF6EFAEF08F013C0E9FF14C0EAFF73
:1011F000880EEF6E32EF09F0010E1324E96E000E37
:101200001420EA6E080EEF6E020E1324E96E000E33
:101210001420EA6E0501000EEE6E0501050EED6E5E
:1012200013C0E9FF14C0EAFF840EEF6E00EE0CF06D
:10123000EE50EE10ED10D8B420EF09F022EF09F0D7
:1012400031EF09F000EE0CF002D831EF09F00500A3
:10125000FA6EEE50FD6EEE50FE6EEE50FF6EFA50DE
:101260001200099E1200080E045C000E0558D8B04A
:101270003CEF09F03EEF09F061EF09F004C007F11F
:1012800005C008F1236647EF09F049EF09F051EF77
:1012900009F00101096F010E236E010109515FEF91
:1012A00009F02304D8A457EF09F059EF09F05FEFD4
:1012B00009F00101096F020E236E0101095168EF67
:1012C00009F0080E01010101076F000E0101086F0E
:1012D0000FC0E9FF10C0EAFFFD0EEF160FC0E9FFD7
:1012E00010C0EAFFFE0EEF160FC0E9FF10C0EAFFC4
:1012F000010101010851EF12010E0F24E96E000EE9
:101300001020EA6E010107C1EFFF01010101075141
:10131000045C046E0101010108510558056E0501C8
:10132000200E1E6E0501050E1F6E03B09AEF09F028
:101330009CEF09F0C9EF09F0BCEF09F000C0F6FF1F
:1013400001C0F7FFF86A1EC0E1FF1FC0E2FF070EF1
:10135000F76403D00800F55005D0F6CFE9FFF7CFCA
:10136000EAFFEF50E76E004A012A1E4A1F2A0101D8
:1013700001010707D8A00807010101010851071161
:10138000D8A4C5EF09F0C7EF09F09EEF09F0F4EF1C
:1013900009F0E9EF09F000C0F6FF01C0F7FFF86AB5
:1013A0001EC0E1FF1FC0E2FF070EF76403D0080074
:1013B000F55005D0F6CFE9FFF7CFEAFFEF50E76E23
:1013C000004A012A1E4A1F2A010101010707D8A06D
:1013D00008070101010108510711D8A4F2EF09F033
:1013E000F4EF09F0CBEF09F012001C50FD0BD8A46C
:1013F000FCEF09F0FEEF09F089EF0AF01CC003F1E1
:101400007E0E010103170101D8900331040D040180
:10141000000EF324156E166A0401040E162215C080
:1014200013F016C014F0040E131A15C0E9FF16C00D
:10143000EAFFEF30E8320F0B0D0AD8A422EF0AF0D2
:1014400024EF0AF085EF0AF0200E0101036F050E6C
:10145000046F020E1524E96E000E1620EA6E0101DB
:10146000EE520451ED1803C1E8FFD8B4EF18D8A428
:101470003CEF0AF03EEF0AF081EF0AF0020E15246D
:10148000E96E000E1620EA6E0501000EEE6E0501F3
:10149000050EED6E0101036F000E01010101026FE7
:1014A00001010351070E0101010102655AEF0AF023
:1014B0005CEF0AF05EEF0AF081EF0AF00501200E02
:1014C000010101010225E96EEA6A0501050EEA2221
:1014D0000501000E010101010225E16EE26A05012C
:1014E000050EE222EFCFE7FF01010101022B070EFB
:1014F0000101010102657FEF0AF081EF0AF05EEF62
:101500000AF0D4EC0FF087EF0AF0D6EC10F095EF6C
:101510000AF01C50FD0B040AD8A491EF0AF093EFD7
:101520000AF095EF0AF04EEC0EF0120005010501ED
:101530000051800AD8A49FEF0AF0A1EF0AF02FEF24
:101540000BF00101076FC00E036E0101075124EF7C
:101550000BF0A50E006E080E016E120E046E000E4A
:10156000056E2FEF0BF0050105010251020DC10EB2
:10157000F324F66EF76A080EF7220900F5CF00F0A3
:101580000A00F5CF01F0020E00240101076F000EE2
:1015900001200101086F07C1F6FF08C1F7FFF86AD3
:1015A000070EF76407D00900F5CF04F00900F5CF66
:1015B00005F008D0F6CFE9FFF7CFEAFFEECF04F051
:1015C000EECF05F02FEF0BF0030E050105010261D0
:1015D000ECEF0AF0EEEF0AF014EF0BF00501050155
:1015E0000251020DB70EF324F66EF76A080EF722C9
:1015F0000900F5CF00F00A00F5CF01F00050F66EBB
:10160000E96E070EEA6E0150EA6403D0EA6EEF500D
:1016100003D0F76E0800F5500101076F0101075173
:10162000046E056A1AEF0BF00101076F000E036EDE
:10163000010107512FEF0BF00101076F000E036E40
:10164000010107512FEF0BF0050105010351010ABC
:1016500080E0030A88E0010AB7E01CEF0BF01200FB
:1016600005010039E832030B0009D8B43AEF0BF05A
:101670003CEF0BF03EEF0BF0BDEF0BF0A2EF0BF0E9
:10168000038E0101066F080E1D6E01010651BDEFAC
:101690000BF096EC0AF0BDEF0BF027EC0FF0BDEF6E
:1016A0000BF01B0E006E000E016E03800101066F31
:1016B000010E046E01010651038EBDEF0BF056ECD6
:1016C0000DF0BDEF0BF0D0EC06F0BDEF0BF0220EED
:1016D000050105010425006E016A000E0122038048
:1016E0000101066F010E046E01010651038EBDEF6C
:1016F0000BF0038E220E050105010425E96EEA6A4E
:10170000000EEA22050102C5EFFFBDEF0BF0000E4F
:10171000010101010C6F000E01010D6F000E0101AE
:1017200001010A6F000E01010B6F020E01010101A0
:10173000086F000E0101096F85EC0FF0BDEF0BF093
:10174000BDEF0BF0050105010151000AB8E0010AE7
:10175000BAE0020AB8E0060A93E0030A9AE0010A36
:10176000D6E00F0A9EE0010A98E0030AB0E0010A01
:10177000C0E0070AE5E0A0EF0BF01200000E6A6E71
:10178000000E686E160E6F6E9F0E6B6E7B0E696E8E
:101790006D8C000E6E6E000E010101010C6F000ECB
:1017A00001010D6F000E010101010A6F000E010120
:1017B0000B6F710E01010101086F0F0E0101096F1E
:1017C00083EC11F06D9C0101036F000E010101011A
:1017D000026F01010351070E010101010265F3EFE0
:1017E0000BF0F5EF0BF0F7EF0BF01AEF0CF0010137
:1017F00001010251040D0401000EF324E96EEA6AAE
:101800000401040EEA22000EEE6E000EEE6E000ED3
:10181000EE6E000EED6EED52ED5201010101022B54
:10182000070E01010101026518EF0CF01AEF0CF030
:10183000F7EF0BF0160E706E1FEF0CF0689668B69F
:1018400024EF0CF026EF0CF01EEF0CF00101036FFB
:10185000000E036E010103510101036F000E096EBA
:1018600001010351000E0A6E000E0B6E6D9804010B
:10187000080E0F6E0401040E106E0101036F000EBE
:101880001B6E010103510101036F000E1D6E01016A
:10189000035112001F0E1D6450EF0CF052EF0CF0BC
:1018A00059EF0CF06DA257EF0CF059EF0CF05BEF15
:1018B0000CF0D5EF0CF020C0E9FF21C0EAFFEF34B7
:1018C000E836010B0101026F010102510101010122
:1018D000006F0101016B21502010D8A472EF0CF0B1
:1018E00074EF0CF07BEF0CF0000E01010101006FB2
:1018F000000E0101016F0101010101510011D8A485
:1019000084EF0CF086EF0CF0D5EF0CF0A1EF0CF0AB
:1019100081A08DEF0CF08FEF0CF092EF0CF0819026
:1019200093EF0CF08180AEEF0CF081828194AEEFEA
:101930000CF081928184AEEF0CF081928194AEEF35
:101940000CF0040104018051800AE2E0010AEDE09C
:10195000030AEFE0010AF1E0AEEF0CF00101026FC3
:10196000400E01010101176F010102510401800EB7
:1019700001010101156F0401040E0101166F01013F
:10198000036F000E01010101146F010103510101F8
:10199000046F010E01010101136F01010451D6EC26
:1019A0000CF013C120F014C121F01200010101015B
:1019B0001451D8B4DEEF0CF0E0EF0CF0F2EF0CF0C5
:1019C000010101011351020D0F0EF324E96EEA6AC1
:1019D000000EEA220101EECF18F10101EDCF19F15D
:1019E00002EF0DF0010101011351020D170EF32456
:1019F000E96EEA6A000EEA220101EECF18F1010158
:101A0000EDCF19F1020E010101011825E96E000E5A
:101A1000010101011921EA6E010115C1EEFF010169
:101A200016C1EDFF010E010101011825E96E000E3E
:101A3000010101011921EA6E010117C1EFFF18C16F
:101A4000E9FF19C1EAFF400EEF1618C1E9FF19C1FD
:101A5000EAFF880EEF12010101011451D8B433EFEF
:101A60000DF035EF0DF043EF0DF0010101011351C1
:101A7000020D0F0EF324E96EEA6A000EEA22040E4C
:101A8000EF1A4FEF0DF0010101011351020D170E76
:101A9000F324E96EEA6A000EEA22040EEF1A18C176
:101AA00013F119C114F155EF0DF01200000E0501EC
:101AB0000501206F000E05010501216FB5EF0DF046
:101AC000038E0501050120812804D8A46AEF0DF0DA
:101AD0006CEF0DF06FEF0DF0050105012083C0EFF5
:101AE0000DF0038EC0EF0DF0038E0501050104BF5C
:101AF0007CEF0DF07EEF0DF090EF0DF0050104513D
:101B00000F0B020D170EF324E96EEA6A000EEA22AB
:101B10000101EECF07F10101EDCF08F1A0EF0DF0CB
:101B2000050104510F0B020D0F0EF324E96EEA6A52
:101B3000000EEA220101EECF07F10101EDCF08F11D
:101B400007C1E9FF08C1EAFFEF500101096F010178
:101B500009A5ADEF0DF0AFEF0DF06FEF0DF0010E39
:101B600005010501206FC0EF0DF0050100511F0BAD
:101B7000000AA6E0010AB5E0030AB6E0C0EF0DF0E6
:101B800003AEC5EF0DF0C7EF0DF0D4EF0DF005017A
:101B9000200E006E0501050E016E03800101096F24
:101BA000020E046E0101095112000401000E010130
:101BB00001011C6F0401040E01011D6F01010101EF
:101BC0001A51020DF3CF1EF1010101011951040D4B
:101BD000F35001011E2501011F6F0101D8901F372D
:101BE0000101D8901F35010101011B6F01010101A5
:101BF0001B41E8423F0B010101011B6F0101010183
:101C00001B51040DF350010101011C27000E0101BD
:101C100001011D231CC1E9FF1DC1EAFF7F0EEF1664
:101C2000010101011A6717EF0EF019EF0EF02BEF0B
:101C30000EF0010101011951020D170EF324E96E96
:101C4000EA6A000EEA2201011CC1EEFF01011DC17A
:101C5000EDFF3BEF0EF0010101011951020D0F0ED6
:101C6000F324E96EEA6A000EEA2201011CC1EEFFCC
:101C700001011DC1EDFF1CC1E9FF1DC1EAFFBF0E3F
:101C8000EF16040E010101011C25E96E000E010191
:101C900001011D21EA6E400EEF1212000FC0E9FF94
:101CA00010C0EAFFEF38E832E832010B0101010110
:101CB000056F040E0F1A1D50080AD8A462EF0EF02B
:101CC00064EF0EF07CEF0EF002C56EFF6E50D8B4DC
:101CD0006CEF0EF06EEF0EF076EF0EF00101066F76
:101CE000100E1D6E010106517CEF0EF00101066F12
:101CF000040E1D6E010106512404D8A482EF0EF0DB
:101D000084EF0EF0BCEF0EF0020E0F24E96E000E11
:101D10001020EA6E0501200EEE6E0501050EED6E37
:101D200033EC09F02350020AD8A499EF0EF09BEF90
:101D30000EF0A3EF0EF00FC0E9FF10C0EAFF840E13
:101D4000EF6EBAEF0EF0010101010567AAEF0EF088
:101D5000ACEF0EF0B4EF0EF00FC0E9FF10C0EAFFD9
:101D6000C80EEF6EBAEF0EF00FC0E9FF10C0EAFF29
:101D7000880EEF6EBEEF0EF05EEC10F01200000E5B
:101D800001010101256F000E0101266F0101010112
:101D900023512211D8B4CFEF0EF0D1EF0EF020EF87
:101DA0000FF00101276F010E01010101246F0101F4
:101DB0002751E4EF0EF00101D89001012237010113
:101DC000233701010101242B0101010123AFEBEFB6
:101DD0000EF0EDEF0EF0DBEF0EF00101D8900101F7
:101DE00025370101263701010101225101010101BD
:101DF000205D010101012351010101012159D8A0F8
:101E000004EF0FF006EF0FF015EF0FF001010101E5
:101E1000225101010101205F010101012351010152
:101E20000101215B0101010125810101D89001011E
:101E300023330101223301010101242FEDEF0EF0C4
:101E400025C120F126C121F126EF0FF01200038EEB
:101E5000000E010101010C6F000E01010D6F000E5B
:101E6000010101010A6F000E01010B6F710E0101EA
:101E70000101086F0F0E0101096F83EC11F0010ED3
:101E8000010101010C6F000E01010D6F000E010137
:101E900001010A6F000E01010B6F220E0101010109
:101EA000086F000E0101096F83EC11F002C51BF0F1
:101EB0001B665DEF0FF05FEF0FF067EF0FF00101B2
:101EC000076F100E1D6E0101075184EF0FF0010125
:101ED000076F200E1D6E01010751010E0101010166
:101EE0000C6F000E01010D6F1B0E010101010A6F45
:101EF000000E01010B6F010E01010101086F000EC0
:101F00000101096F85EC0FF01200A8EF0FF09CECB7
:101F100010F0D1EF0FF0D3EC11F0D1EF0FF0CDECCA
:101F200011F0D1EF0FF0D2EC11F0D1EF0FF0D4ECB3
:101F300011F0D1EF0FF0D1EC11F0D1EF0FF0D0ECA8
:101F400011F0D1EF0FF000F0D1EF0FF0D1EF0FF063
:101F5000010108C10EF1010109C10FF10101C9EF31
:101F60000FF001010E51010AD2E0030AD4E0010A88
:101F7000D6E0710AE8E0010AD6E0070ADCE0010ACF
:101F8000D6E0A6EF0FF001010E51FF0AD8E0A6EF50
:101F90000FF001010F51000AE4E07F0AF4E0A6EF20
:101FA0000FF0D3EF0FF012000FC0E9FF10C0EAFFEF
:101FB000EF500101056F010105AFE1EF0FF0E3EF15
:101FC0000FF0E9EF0FF00FC0E9FF10C0EAFF000EBD
:101FD000EF6E0101056F000E236E01010551010135
:101FE000056F000E246E01010551000E046E000EF7
:101FF000056E0101056F000E036E0101055130EC05
:102000000BF0000E010101010C6F000E01010D6FBC
:10201000000E010101010A6F000E01010B6F030E9A
:1020200001010101086F000E0101096F85EC0FF03D
:10203000BDEC05F01200700E0101176F0F0E186F46
:1020400001010101135101011727000E010118239D
:1020500017C115F118C116F115C1E9FF16C1EAFF44
:10206000010114C1EFFF0101010114A53AEF10F0C5
:102070003CEF10F048EF10F00101176F000E010166
:1020800001011A6F0101175113C119F1D5EC0DF0BF
:102090000101010114A34FEF10F051EF10F05DEFBB
:1020A00010F00101176F010E010101011A6F01010A
:1020B000175113C119F1D5EC0DF012000101096F90
:1020C000000E246E010109510FC0E9FF10C0EAFFA4
:1020D000000EEF6E040E0F1801010101076F105082
:1020E0000101086F07C1E9FF08C1EAFF000EEF6EAA
:1020F00009AE7DEF10F07FEF10F09BEF10F000EED7
:102100000CF0EE50EE10ED10D8B489EF10F08BEF1C
:1021100010F09AEF10F000EE0CF002D89AEF10F0E9
:102120000500FA6EEE50FD6EEE50FE6EEE50FF6E44
:10213000FA501200099E12000101106F1E0E0101DB
:102140000101146F010110510101116F010E010114
:102150000101136F010111511BEC10F00101106F0F
:10216000400E01010101176F010110510401800EA1
:1021700001010101156F0401040E0101166F010137
:10218000116F000E01010101146F010111510101D4
:10219000126F010E01010101136F01011251D6EC02
:1021A0000CF013C120F014C121F012002450020AD7
:1021B000D8A4DDEF10F0DFEF10F0E3EF10F070ECDB
:1021C00008F00EEF11F05EEC10F02766EAEF10F069
:1021D000ECEF10F008EF11F0010E1324E96E000E81
:1021E0001420EA6E080EEF6E020E1324E96E000E44
:1021F0001420EA6E0501000EEE6E0501050EED6E6F
:1022000013C0E9FF14C0EAFF8C0EEF6E0EEF11F061
:102210000101056F000E276E0101055112000F0E1E
:10222000C16E000E926E000E936E000E946E000E44
:10223000956E000E966E000E806E000E816E000E82
:10224000826E000E836E000E846E000E206E000EF5
:10225000216E000E306E000E316E0101006F010E16
:10226000326E01010051BEEC0BF08180120070A0B3
:102270003CEF11F03EEF11F05DEF11F0800E15C054
:10228000E9FF16C0EAFFEF6248EF11F04AEF11F0E4
:102290005CEF11F0840E0FC0E9FF10C0EAFFEF629F
:1022A00054EF11F056EF11F05CEF11F015C0E9FF9B
:1022B00016C0EAFF8C0EEF6E7090689A1200000E46
:1022C000010101010C6F000E01010D6F000E0101F3
:1022D00001010A6F000E01010B6F740E0101010173
:1022E000086F000E0101096F85EC0FF06D92699483
:1022F0007BEF11F0689468B480EF11F082EF11F079
:102300007AEF11F0120008C10EF109C10FF194EF3C
:1023100011F00EC1E9FF0FC1EAFF01010AC1EFFF91
:10232000010101010E4B0F2B010101010C07D8A087
:102330000D0701010C29D8B40D29D8A4A2EF11F082
:10234000A4EF11F089EF11F0A6EF11F012006984EB
:1023500068986D82000E010101010C6F000E0101F1
:102360000D6F000E010101010A6F000E01010B6FDC
:10237000750E01010101086F000E0101096F85EC66
:102380000FF012000FEC11F0818063EC04F04AECC6
:102390000CF0C5EF11F000EF00F0A9EC07F012000F
:0A23A00012001200120012001200D9
:020000040030CA
:0E000000240E3F1EFF8181FF0FC00FE00F4056
:00000001FF
